:100000000C9468010C9490010C9490010C94900154
:100010000C9490010C9490010C9490010C9490011C
:100020000C9490010C94950B0C9490010C949001FD
:100030000C9490010C9490010C9490010C949001FC
:100040000C940A090C9490010C94CB070C94A5070E
:100050000C9490010C9490010C9490010C949001DC
:100060000C9490010C94900100407A10F35A00A077
:10007000724E18090010A5D4E80000E87648170071
:1000800000E40B54020000CA9A3B000000E1F505B1
:10009000000080969800000040420F000000A086FB
:1000A00001000000102700000000E803000000002D
:1000B0006400000000000A000000000001000000D1
:1000C00000002C76D888DC674F0823DFC1DFAE59EB
:1000D000E1B1B796E5E3E453C63AE651997696E87E
:1000E000E6C28426EB898C9B62ED407C6FFCEFBC02
:1000F0009C9F40F2BAA56FA5F490055A2AF75C932D
:100100006B6CF9676DC11BFCE0E40D47FEF520E662
:10011000B500D0ED902E0300943577050080841E45
:10012000080000204E0A000000C80C333333330FA0
:10013000986E12831141EF8D2114893BE65516CF3D
:10014000FEE6DB18D1844B381BF77C1D901DA4BB49
:10015000E424203284725E228100C9F124ECA1E5FE
:100160003D27436F6E6E6563746564434220697317
:1001700020307800454C2D544350207265616479DD
:100180000054435020736F636B65742073657475FE
:1001900070206661696C65642C20747279206167D7
:1001A00061696E20696E203130207365636F6E6403
:1001B00073206166746572207265626F6F74002EC1
:1001C0000057616974696E6720666F7220576946CF
:1001D000692000454C2D436C69656E742073796EFF
:1001E0006365642100454C2D436C69656E74207312
:1001F000796E63206661696C6564210057494649E0
:10020000204E4F542052454144593A200057494608
:100210004920434F4E4E454354454400CF01E80129
:10022000F70105020E021F02F70136026302770290
:1002300089029C02AB02F701BD02CD0252656365E3
:100240006976656420696E76616C69642072657395
:10025000706F6E736520747970650009436F6E6E00
:10026000656374696F6E2070726F626C656D3A20A1
:100270000000000000240027002A000000000025E4
:100280000028002B00000000080002010000030409
:10029000070000000000000000000000002300260E
:1002A00000290004040404040404040202020202FB
:1002B000020303030303030102040810204080012A
:1002C0000204081020010204081020004E232623F7
:1002D00011241FBECFEFD8E0DEBFCDBF12E0A0E0FB
:1002E000B1E0E6EBF9E502C005900D92A03EB10742
:1002F000D9F726E0A0EEB2E001C01D92A831B20706
:10030000E1F711E0C7E6D1E004C02197FE010E94A9
:10031000B12AC636D107C9F70E94570D0C94CE2CCE
:100320000C9400000895CF92DF92EF92FF920F930A
:100330001F93CF93DF936C017A018B01C0E0D0E073
:10034000CE15DF0589F0D8016D918D01D601ED91B3
:10035000FC910190F081E02DC6010995892B11F4E3
:100360007E0102C02196ECCFC701DF91CF911F9192
:100370000F91FF90EF90DF90CF900895089580E067
:1003800090E00895FC01538D448D252F30E0842F9B
:1003900090E0821B930B541710F0CF9608950197AD
:1003A0000895FC01918D828D981761F0828DDF0197
:1003B000A80FB11D5D968C91928D9F5F9F73928F58
:1003C00090E008958FEF9FEF0895FC01918D828D4D
:1003D000981731F0828DE80FF11D858D90E008951A
:1003E0008FEF9FEF0895FC01918D228D892F90E072
:1003F000805C9F4F821B91098F73992708958BED25
:1004000094E00E94F30121E0892B09F420E0822F7F
:100410000895FC01848DDF01A80FB11DA35ABF4FC1
:100420002C91848D90E001968F739927848FA689F3
:10043000B7892C93A089B1898C9180648C93938D1A
:10044000848D981306C00288F389E02D80818F7D0A
:1004500080830895EF92FF920F931F93CF93DF93C2
:10046000EC0181E0888F9B8D8C8D981305C0E88905
:10047000F989808185FD24C0F62E0B8D10E00F5F79
:100480001F4F0F731127E02E8C8DE8120CC00FB692
:1004900007FCFACFE889F989808185FFF5CFCE0185
:1004A0000E940902F1CF8B8DFE01E80FF11DE35A86
:1004B000FF4FF0820B8FEA89FB898081806207C041
:1004C000EE89FF896083E889F9898081806480836F
:1004D00081E090E0DF91CF911F910F91FF90EF901D
:1004E0000895CF93DF93EC01888D8823C9F0EA89C2
:1004F000FB89808185FD05C0A889B9898C9186FD1D
:100500000FC00FB607FCF5CF808185FFF2CFA88919
:10051000B9898C9185FFEDCFCE010E940902E7CF0A
:10052000DF91CF91089580E090E0892B29F00E941F
:10053000FF0181110C9400000895833081F028F4AC
:10054000813099F08230A1F008958730A9F0883089
:10055000B9F08430D1F4809180008F7D03C0809108
:1005600080008F7780938000089584B58F7702C0D4
:1005700084B58F7D84BD08958091B0008F7703C0CE
:100580008091B0008F7D8093B00008953FB7F894BC
:100590008091700490917104A0917204B0917304E1
:1005A00026B5A89B05C02F3F19F00196A11DB11DCE
:1005B0003FBFBA2FA92F982F8827820F911DA11D09
:1005C000B11DBC01CD0142E0660F771F881F991F46
:1005D0004A95D1F70895EF92FF920F931F93CF930F
:1005E000DF93EC0188819981EC81FD812281338147
:1005F0008217930760F5EA81FB81019111912EEF3B
:100600003FEF201B310B7901A3E0EA22FF24FB839B
:10061000EA83019699838883CB019A010417150711
:1006200008F49801260F371F8217930729F041918C
:10063000DC014D93CD01F8CF9701200F311F8A8146
:100640009B81280F391F3B832A83C80102C08FEF8B
:100650009FEFDF91CF911F910F91FF90EF90089541
:100660000F931F93CF93DF936115710509F461C058
:100670008B01EC01BC016B5E7F4F41E050E0C80193
:100680000E94EB02BE016A5E7F4F41E050E0C8016C
:100690000E94EB02BE016F5E7F4F42E050E0C80156
:1006A0000E94EB028D89813081F5D8012D913C911A
:1006B00011971496ED91FC911597828193812817DB
:1006C000390718F51296ED91FC911397819191914C
:1006D0001396FC93EE9312972F5F3F4F11963C9326
:1006E0002E93FC8BEB8B2EEF3FEF281B390B2370E7
:1006F0003327820F931F12962D913C911397820FEF
:10070000931F13969C938E93129781E090E0988BA1
:100710008F878E85882369F02B893C8949895A897E
:10072000EC85FD856E898D89DF91CF911F910F91A9
:100730000994DF91CF911F910F9108954627342F8F
:10074000252FA901442784E0440F551F8A95E1F71E
:1007500042275327CA01892F992782958F704827EE
:100760005927CA01882735E0969587953A95E1F78C
:10077000842795270895EF92FF920F931F93CF93AD
:10078000DF937C01C901EB018B01040F151FC0171A
:10079000D10731F06991AC01C7010E949E03F7CFE8
:1007A000DF91CF911F910F91FF90EF900895CF931C
:1007B000DF93EC018A859B85603CA1F06B3D21F5C0
:1007C000DC01ED91FC910190F081E02D6BED09953C
:1007D0008A859B85DC01ED91FC910190F081E02DF3
:1007E0006DED18C0DC01ED91FC910190F081E02DE0
:1007F0006BED09958A859B85DC01ED91FC9101905B
:10080000F081E02D6CED06C0DC01ED91FC910190D2
:10081000F081E02DDF91CF910994EF92FF920F9339
:100820001F93CF93DF937C01EB018B01040F151F06
:10083000C017D10729F06991C7010E94D703F8CFEB
:10084000DF91CF911F910F91FF90EF900895089540
:1008500010926A0408950E94AE2CCF93DF93EC01AE
:1008600088819981009711F00E944C2B198218827F
:100870001D821C821B821A82DF91CF9108950F93F3
:100880001F93CF93DF93EC0188819981009729F022
:100890002A813B812617370788F48B016F5F7F4FD2
:1008A0000E94E42B009761F0998388831B830A835D
:1008B0002C813D81232B11F4FC01108281E001C0C9
:1008C00080E0DF91CF911F910F910895EF92FF92F9
:1008D0000F931F93CF93DF93FC0124813581611522
:1008E000710511F480E019C041155105A9F07B0193
:1008F000EC018A01020F131FB8010E943F048823F4
:1009000089F3288139818C819D81B701820F931FE2
:100910000E94C72C1D830C8381E0DF91CF911F9132
:100920000F91FF90EF900895EF92FF920F931F9316
:10093000CF93DF93EC017B018A01BA010E943F044F
:10094000811104C0CE010E942D0407C01D830C83B9
:10095000B701888199810E94C72CCE01DF91CF9188
:100960001F910F91FF90EF900895CF93DF93FC01BB
:10097000248135814217530778F4C081D181062E36
:10098000000C770BCE01840F951F0E94BC2C0097A2
:1009900019F08C1B9D0B02C08FEF9FEFDF91CF9161
:1009A0000895CF93DF93EC016115710561F0FB01B0
:1009B00001900020E9F73197AF01461B570B0E94C9
:1009C0006604811103C0CE010E942D04CE01DF9187
:1009D000CF910895CF93DF93EC01FB0144815581C2
:1009E000608171810E946604811103C0CE010E9462
:1009F0002D04CE01DF91CF910895CF93DF93EC01C9
:100A00006115710559F0FB0101900020E9F731975C
:100A1000AF01461B570B0E94940402C00E942D0494
:100A2000CE01DF91CF910895CF93DF93EC01FB01CD
:100A30008617970761F0608171816115710529F052
:100A4000448155810E94940402C00E942D04CE016D
:100A5000DF91CF9108950F931F93CF93DF938C0174
:100A6000EB01FC01808191810097B1F0688179816F
:100A70006115710579F0428153812C813D814217C6
:100A8000530740F00E94C72C8C819D81F80195830B
:100A9000848313C00E944C2B88819981F801918333
:100AA00080838A819B81938382838C819D819583BE
:100AB0008483198218821B821A821D821C82DF9114
:100AC000CF911F910F910895FC01808191810C9429
:100AD0004C2B0F931F93CF93DF93CDB7DEB7A29725
:100AE0000FB6F894DEBF0FBECDBF8C01CB01BA01AB
:100AF000F80111821082138212821582148230E072
:100B0000AE014F5F5F4F0E946C24BE016F5F7F4F4D
:100B1000C8010E94FD04A2960FB6F894DEBF0FBE76
:100B2000CDBFDF91CF911F910F9108950F931F9328
:100B3000CF93DF93CDB7DEB762970FB6F894DEBFE1
:100B40000FBECDBF8C01CB01F80111821082138240
:100B500012821582148250E0BE016F5F7F4F0E94A7
:100B60005624BE016F5F7F4FC8010E94FD0462964C
:100B70000FB6F894DEBF0FBECDBFDF91CF911F91AE
:100B80000F910895FC011182108213821282158246
:100B900014820C941405FC011182108213821282BB
:100BA000158214826115710551F0FB01019000203E
:100BB000E9F73197AF01461B570B0C949404089545
:100BC000AF92BF92CF92DF92EF92FF920F931F935B
:100BD000CF93DF9300D0CDB7DEB75C018B016EE120
:100BE00071E00E94CB05D8011296ED91FC9113970C
:100BF000C190D1908EEF9FEF7C01EC18FD08B3E01F
:100C0000EB22FF24D8011396FC93EE9312978D915B
:100C10009C91119701968D939C93D8011296ED911A
:100C2000FC911397C114D104B1F0CF010196D80102
:100C300013969C938E931297808189831A8241E048
:100C400050E0BE016F5F7F4FC5010E946604B1E0B6
:100C5000CB1AD108E2CFEE0EFF1E1396FC92EE9255
:100C60001297C5010F900F90DF91CF911F910F91B7
:100C7000FF90EF90DF90CF90BF90AF9008950F93CB
:100C80001F93CF93DF93CDB7DEB72C970FB6F894B1
:100C9000DEBF0FBECDBF8C01BC01CE0107960E9406
:100CA000E005BE01695F7F4F84EA94E00E9414056D
:100CB000B801CE0101960E94E005BE016F5F7F4F33
:100CC0008EE994E00E941405CE0101960E9464050D
:100CD000CE0107960E9464052C960FB6F894DEBFED
:100CE0000FBECDBFDF91CF911F910F910895611578
:100CF000710579F0FB0101900020E9F73197AF0110
:100D0000461B570BDC01ED91FC910280F381E02D35
:100D1000099480E090E008954F925F926F927F92E5
:100D2000EF92FF920F931F93CF93DF93CDB7DEB770
:100D3000A1970FB6F894DEBF0FBECDBF7C01FA01BC
:100D4000CB0119A2223008F42AE08E010F5D1F4F5B
:100D5000422E512C612C712CBF01A30192010E94E3
:100D6000F028F901CA01015011096A3014F4605DDC
:100D700001C0695CD8016C93232B242B252B61F7D0
:100D8000B801C7010E947706A1960FB6F894DEBF9E
:100D90000FBECDBFDF91CF911F910F91FF90EF90CC
:100DA0007F906F905F904F9008950F931F93CF9314
:100DB000DF93EC010E9477068C016CE171E0CE01BB
:100DC0000E947706800F911FDF91CF911F910F91A5
:100DD0000895AF92BF92CF92DF92FF920F931F932D
:100DE000CF93DF93CDB7DEB7F82E8A01ADB6BEB68E
:100DF000811103C01092E1025FC041E0841324C05E
:100E0000C80101964DB75EB7481B590B0FB6F89451
:100E10005EBF0FBE4DBF8DB79EB701966C01A80196
:100E2000B9010E94B32CF601E00FF11F1082B60148
:100E30008EE096E00E94FD04F092E1020FB6F89475
:100E4000BEBE0FBEADBE38C092E0891325C0053FBF
:100E50004FEF140789F18BE592E00E943F0C11954A
:100E6000019511090031110534F4F801EE0FFF1F4F
:100E7000E45EFD4F02C0E0E2F2E0659174918BED1B
:100E800094E0DF91CF911F910F91FF90DF90CF9071
:100E9000BF90AF900C94D50653E0851769F08CE3B2
:100EA00092E0DF91CF911F910F91FF90DF90CF9053
:100EB000BF90AF900C94600C0FB6F894BEBE0FBEFE
:100EC000ADBEDF91CF911F910F91FF90DF90CF903A
:100ED000BF90AF900895CF93DF931F92CDB7DEB749
:100EE000DC011496ED91FC9115972281338121301C
:100EF000310539F541E050E0BE016F5F7F4F0E9440
:100F0000EB028981853041F48DE092E00E94600C13
:100F100081E08093E00215C08CEF91E00E943F0CCD
:100F2000498150E060E070E02AE08BED94E00E949F
:100F30008C066CE171E08BED94E00E9477061092D4
:100F4000E0020F90DF91CF9108951F920F920FB69C
:100F50000F9211242F933F934F935F936F937F933F
:100F60008F939F93AF93BF93EF93FF938BED94E099
:100F70000E940902FF91EF91BF91AF919F918F91D4
:100F80007F916F915F914F913F912F910F900FBE85
:100F90000F901F9018951F920F920FB60F92112469
:100FA0002F938F939F93EF93FF93E091EB04F09136
:100FB000EC048081E091F104F091F20482FD12C012
:100FC00090818091F4048F5F8F732091F5048217D4
:100FD00051F0E091F404F0E0E552FB4F958F8093DF
:100FE000F40401C08081FF91EF919F918F912F9127
:100FF0000F900FBE0F901F9018950F931F9390E0C6
:10100000FC01E954FD4F7491FC01ED55FD4FE49155
:10101000662311F0672F01C060E0F0E0EE0FFF1FC4
:10102000E756FD4F8591949189019A013F70462FB3
:10103000672F0E94120D611571058105910549F018
:10104000DC01CB010196A11DB11DBC01CD019F703A
:1010500003C060E070E0CB011F910F910895CF9322
:10106000DF93282F30E0F901EB57FD4F8491F90110
:10107000E954FD4FD491F901ED55FD4FC491CC23B6
:1010800091F081110E949D02EC2FF0E0EE0FFF1F06
:10109000E756FD4FA591B491EC91ED2381E090E0EE
:1010A00021F480E002C080E090E0DF91CF910895CC
:1010B0001F93CF93DF93282F30E0F901EB57FD4FBB
:1010C0008491F901E954FD4FD491F901ED55FD4F9B
:1010D000C491CC23C9F0162F81110E949D02EC2FE0
:1010E000F0E0EE0FFF1FE558FD4FA591B4918FB7CB
:1010F000F894111105C09C91ED2FE095E92302C0F1
:10110000EC91ED2BEC938FBFDF91CF911F91089560
:10111000CF93DF9390E0FC01E954FD4F2491FC0153
:10112000ED55FD4F8491882361F190E0880F991F60
:10113000FC01EF58FD4FC591D491FC01E558FD4FDE
:10114000A591B491611109C09FB7F8948881209549
:1011500082238883EC912E230BC0623061F49FB709
:10116000F8943881822F809583238883EC912E2BED
:101170002C939FBF06C08FB7F894E8812E2B28834D
:101180008FBFDF91CF9108958F929F92AF92BF92C0
:10119000CF92DF92EF92FF926B017C010E94C60218
:1011A0004B015C01C114D104E104F104F1F00E948F
:1011B000C602DC01CB0188199909AA09BB09883E3E
:1011C0009340A105B10570F321E0C21AD108E108EE
:1011D000F10888EE880E83E0981EA11CB11CC11492
:1011E000D104E104F10419F7DDCFFF90EF90DF9017
:1011F000CF90BF90AF909F908F9008952FB7F894A5
:1012000060916C0470916D0480916E0490916F04F4
:101210002FBF08951F920F920FB60F9211242F9394
:101220003F938F939F93AF93BF9380916C04909162
:101230006D04A0916E04B0916F0430916B0423E0B3
:10124000230F2D3720F40196A11DB11D05C026E8FE
:10125000230F0296A11DB11D20936B0480936C0493
:1012600090936D04A0936E04B0936F04809170040A
:1012700090917104A0917204B09173040196A11D24
:10128000B11D8093700490937104A0937204B09385
:101290007304BF91AF919F918F913F912F910F90C8
:1012A0000FBE0F901F901895CF93DF93EC01BC01F8
:1012B000635F7F4F42E050E00E940D048A859B856A
:1012C000DC01ED91FC910190F081E02D60ECDF916B
:1012D000CF910994CF92DF92EF92FF920F931F93D9
:1012E000CF93DF9300D0CDB7DEB78C017B015A835B
:1012F000498342E050E0BE016F5F7F4F0E940D04C2
:10130000F8012585368542E050E0BE016F5F7F4FD2
:10131000C8010E94BB03F80196878587C980DA80DF
:10132000CE0CDF1CEC14FD0491F0F7016081C801C4
:101330000E94D703F80145855685F70161917F0129
:10134000C8010E949E03F80196878587EBCFE9804C
:10135000FA80F194E194F108F3E0EF22FF24F1E048
:10136000EF1AF10878F060E0C8010E94D703F80195
:101370004585568560E0C8010E949E03F801968766
:101380008587EDCF0F900F90DF91CF911F910F9137
:10139000FF90EF90DF90CF900895EF92FF920F9320
:1013A0001F93CF93DF93CDB7DEB728970FB6F8948E
:1013B000DEBF0FBECDBF7C017A8369832B833C8364
:1013C0004D835E8318870F83DC011E961C921E924C
:1013D0001D971A968D919C911B97DC01ED91FC91C4
:1013E0000190F081E02D60EC099542E050E0BE01F3
:1013F0006F5F7F4FC7010E940D04F7012585368579
:1014000042E050E0BE016F5F7F4FC7010E94BB0307
:10141000D7011E969C938E931D9742E050E0BE012B
:10142000695F7F4FC7010E940D04F701258536854E
:1014300042E050E0BE01695F7F4FC7010E94BB03DD
:10144000D7011E969C938E931D9744E050E0BE01F9
:101450006D5F7F4FC7010E940D04F701258536851A
:1014600044E050E0BE016D5F7F4FC7010E94BB03A7
:10147000D7011E969C938E931D9728960FB6F894CD
:10148000DEBF0FBECDBFDF91CF911F910F91FF90B7
:10149000EF900895EF92FF920F931F93CF93DF93F6
:1014A0001F92CDB7DEB719828AEAE82E84E0F82EC3
:1014B00002E010E020E030E0A9016CE070E0F7010C
:1014C000808D918D0E94CD0941E050E06BEA71E082
:1014D000F701808D918D0E946A0941E050E0BE01C4
:1014E0006F5F7F4FF701808D918D0E946A09F70130
:1014F000808D918D0E94540981E080936A040F9041
:10150000DF91CF911F910F91FF90EF900895BF92BF
:10151000CF92DF92EF92FF920F931F93CF93DF93BF
:1015200000D000D000D0CDB7DEB78C01BB24B3947F
:10153000D8011A968D919C911B97DC01ED91FC913D
:101540000084F185E02D0995892B09F4ABC0D80101
:101550001A968D919C911B97DC01ED91FC91028470
:10156000F385E02D09958B3D910519F4F801B58AB5
:10157000DFCFD80153964D915C915497803C9105F3
:1015800009F06BC04830510508F458C0F801E784F1
:10159000F0886A01F2E0CF1AD10820E030E0A6011D
:1015A000B701C8010E94BB03F701EC0DFD1D2081AE
:1015B00031818217930759F0D8011C968C911C97A2
:1015C0008823E1F16DEA71E08D919C9135C0F701BE
:1015D000808191818230910599F18330910519F0D4
:1015E000019711F511C0F701A481B5818D919C91EE
:1015F0001197009709F059C012962D913C911397BD
:10160000232B09F052C01AC06EEB71E0D8018D9106
:101610009C910E94D506D8011896ED91FC911997DE
:10162000309761F009950AC0F8018485882331F06C
:1016300069EC71E0808191810E94D506E12CF12C4A
:10164000D80154961C921E92539755961C92E11401
:10165000F10409F46DCFC70158C0F8012589222390
:1016600071F08C3D910531F08D3D910529F48BEDA4
:1016700090E002C080EC90E0D80155961C92F801F1
:10168000218932894217530708F052CF27853089C4
:10169000BA016F5F7F4F748B638BF901E40FF51F05
:1016A000808346CF80E090E030C0FE82ED82E8E0AB
:1016B000EE0EF11CFC82EB821A8219821296ED91D9
:1016C000FC911397309709F4B9CF0097D1F0149695
:1016D0002D913C911597A9015595479520FF0AC07A
:1016E000DC01A40FB51F2D913C91E20FF31F019077
:1016F000F081E02DBE016F5F7F4F840F951F09952C
:101700009DCFCE010196099599CF26960FB6F894F4
:10171000DEBF0FBECDBFDF91CF911F910F91FF9024
:10172000EF90DF90CF90BF9008951F920F920FB669
:101730000F9211242F938F939F9384E68093B2008E
:101740008091E2029091E302883E23E092071CF030
:101750000C94000005C001969093E3028093E2028E
:101760009F918F912F910F900FBE0F901F90189502
:101770002F923F924F925F926F927F928F929F92A1
:10178000AF92BF92CF92DF92EF92FF920F931F938F
:10179000CF93DF93CDB7DEB764970FB6F894DEBF73
:1017A0000FBECDBF6B017C01298B3A8B4B8B5C8BC1
:1017B0000E94FE086C157D058E059F0578F049880E
:1017C0005A886B887C884C0C5D1C6E1C7F1CE1E089
:1017D0006415750586059705C0F536C02B013C01DB
:1017E00069835A826B827C82160127012FEF3FEFBB
:1017F0004FEF5FEF60E070E080E090E05601620143
:10180000E12CF12C00E010E00E949F2AE988FA8880
:101810000B891C891701280157016201E12CF12C69
:1018200000E010E00E94962A59016A017B018C01B8
:10183000E1E029813A814B815C8160E070E080E0E9
:1018400090E00E94A82A0CF4E0E08E2F64960FB678
:10185000F894DEBF0FBECDBFDF91CF911F910F91E6
:10186000FF90EF90DF90CF90BF90AF909F908F90C0
:101870007F906F905F904F903F902F9008950F93BF
:101880001F93CF93DF938C01C0E0D0E0F801EC0F01
:10189000FD1F6491662371F0E091DB04F091DC049C
:1018A0000190F081E02D8BED94E00995892B11F0EA
:1018B0002196ECCFCE01DF91CF911F910F9108952A
:1018C000CF93DF930E943F0CEC016CE171E08BED54
:1018D00094E00E9477068C0F9D1FDF91CF910895B1
:1018E000CF93DF93FC0144815581608171818BED41
:1018F00094E00E949301EC016CE171E08BED94E0C7
:101900000E9477068C0F9D1FDF91CF910895CF9293
:10191000DF92EF92FF92CF93DF93EC010E94FE08DB
:101920006B017C010E94FE08AB01BC014C195D09F2
:101930006E097F09403D57406105710530F4CE01C5
:101940000E94870A009771F302C080E090E0DF9167
:10195000CF91FF90EF90DF90CF900895CF92DF92DC
:10196000FF920F931F93CF93DF9300D000D0CDB79A
:10197000DEB78E010F5F1F4F6C01C01AD10A84E0E1
:10198000F82EF00EC601800F911F0E947128F801F9
:1019900081938F01FE12F6CF69817A818B819C81C0
:1019A0000F900F900F900F90DF91CF911F910F919B
:1019B000FF90DF90CF900895DF92EF92FF920F9308
:1019C0001F93CF93DF9300D000D01F92CDB7DEB727
:1019D00049835A836B837C837C018E010F5F1F4F89
:1019E00084E0D82ED00EF80161918F01C7016D837C
:1019F0000E9471286D81681719F0C7010E9479282B
:101A0000FFEFEF1AFF0AD012EECF0F900F900F905A
:101A10000F900F90DF91CF911F910F91FF90EF905A
:101A2000DF900895CF92DF92EF92FF920F931F9372
:101A3000E82FF92F05C0015011092109310961F181
:101A4000908196239417B9F305C00150110921091B
:101A5000310911F1908196239413F7CFC12CD12C29
:101A6000E12CF12C0AC08FEFC81AD80AE80AF80A4C
:101A70000C151D052E053F0579F0808186238417FE
:101A800091F36C2D7D2D8E2D9F2D1F910F91FF9029
:101A9000EF90DF90CF90089560E070E080E090E0FC
:101AA0001F910F91FF90EF90DF90CF900895CF930B
:101AB000DF93CDB7DEB7C556D1090FB6F894DEBFB8
:101AC0000FBECDBF789484B5826084BD84B581603B
:101AD00084BD85B5826085BD85B5816085BD8091F9
:101AE0006E00816080936E00109281008091810071
:101AF0008260809381008091810081608093810069
:101B0000809180008160809380008091B10084602A
:101B10008093B1008091B00081608093B00080918B
:101B20007A00846080937A0080917A00826080934A
:101B30007A0080917A00816080937A0080917A00A7
:101B4000806880937A001092C1001092B00087E004
:101B50008093B10081E08093700084E68093B200AE
:101B6000E091EB04F091EC0482E08083E091E704E3
:101B7000F091E8041082E091E904F091EA0480E138
:101B800080831092F304E091EF04F091F00486E07A
:101B90008083E091ED04F091EE0480818061808388
:101BA000E091ED04F091EE04808188608083E09103
:101BB000ED04F091EE04808180688083E091ED0473
:101BC000F091EE0480818F7D808361E08BE00E9444
:101BD000880861E08AE00E94880861E089E00E944C
:101BE000880861E080E10E94880861E081E10E944C
:101BF000880861E082E10E94880861E083E10E9438
:101C0000880868EE73E080E090E00E94C4088BE6EC
:101C100097E090937D0580937C058AE795E06C01C1
:101C2000990FEE08FF088091820590918305DC01F1
:101C3000ED91FC910190F081E02D60EC099500E0C0
:101C400010E0A701960161E070E088E795E00E944E
:101C5000CD0988E795E00E945409A0908005B090D6
:101C60008105109281051092800588E795E00E9419
:101C7000870C8C01892B09F4FEC0F8014481558141
:101C800066817781809184054C155D056E057F0521
:101C900009F0D1C0882341F063EC71E080917805B0
:101CA000909179050E94D506B0928105A092800599
:101CB00083ED91E00E94600C8AE49AE09093AD0479
:101CC0008093AC0488E294E09093B3048093B204D0
:101CD00087E294E09093B9048093B8048FE396E090
:101CE0009093BF048093BE0482E691E00E943F0C73
:101CF0008AEA94E06C01990FEE08FF0820E1B70131
:101D0000A6018BED94E00E948C066CE171E08BEDF6
:101D100094E00E94770604E010E020E030E0A901A2
:101D20006AE070E08091C2049091C3040E94CD09E2
:101D3000C982DA82EB82FC8244E050E0BE016F5F30
:101D40007F4F8091C2049091C3040E946A0980EB86
:101D500094E0092E000CAA0BBB0B89839A83AB83FA
:101D6000BC8344E050E0BE016F5F7F4F8091C204AE
:101D70009091C3040E946A0986EB94E0092E000C3E
:101D8000AA0BBB0B89839A83AB83BC8344E050E0EE
:101D9000BE016F5F7F4F8091C2049091C3040E9487
:101DA0006A098CEB94E0092E000CAA0BBB0B89830B
:101DB0009A83AB83BC8344E050E0BE016F5F7F4FEA
:101DC0008091C2049091C3040E946A098091C20468
:101DD0009091C3040E94540900E010E020E030E03C
:101DE000A90164E070E088E795E00E94CD0988E7EA
:101DF00095E00E94540981EC91E00E943F0C88E735
:101E000095E00E94870C8C01892BF1F18FEB91E01A
:101E10000E943F0CF80144815581668177812AE058
:101E20008BED94E00E948C066CE171E08BED94E008
:101E30000E94770629C0882309F417CF6FE171E06B
:101E400080917805909179050E94770680907805B9
:101E500090907905D80114964D915D916D917C918A
:101E600017972AE0C4010E948C066CE171E0C4015E
:101E70000E947706FACEB0928105A092800585EE89
:101E800091E00E94600CCFCE81E06F968FAF6F978C
:101E900027E130E06C963FAF2EAF6C9729EE36E02D
:101EA0003093D1042093D0048093D20484EC94E046
:101EB0009093CB048093CA0480E393E09093CD0485
:101EC0008093CC041092CF041092CE0403E010E073
:101ED0002AEC34E0032E000C440B550B68E270E052
:101EE0008091C8049091C9040E94CD094DE050E052
:101EF00065E271E08091C8049091C9040E946A096A
:101F000042E050E0BE01665A7F4F8091C804909134
:101F1000C9040E946A0941E050E0BE01625A7F4F45
:101F20008091C8049091C9040E946A098091C804F4
:101F30009091C9040E9454098091C8049091C904E9
:101F40000E94870C009789F0DC0114964D915D91F9
:101F50006D917C91179777FD08C04093C40450930E
:101F6000C5046093C6047093C704FC016481758145
:101F70007093E5026093E40277FF0DC081E891E081
:101F80000E94600C60E177E280E090E00E94C4086B
:101F90000C9400004DC04AE0CE0182960E94960546
:101FA00019A618A61BA61AA61DA61CA64AE0BE01C5
:101FB0006F5F7F4F87E190E00E94BD24BE016F5F9D
:101FC0007F4FCE0188960E94FD0465E271E0CE014C
:101FD0008E960E94CB05BE01625D7F4FCE010196B9
:101FE0000E94C20563E371E0CE0101960E94D10414
:101FF000BE01685D7F4F0E94EA0465E371E00E94C4
:10200000D104BE016E5D7F4F0E94EA040E94700CF5
:10201000CE0101960E946405CE018E960E94640551
:10202000CE0188960E946405CE0182960E946405C6
:1020300084E791E00E94600C0E94FE0860936604B1
:1020400070936704809368049093690460E08091C2
:1020500027040E94880860E08091F7030E948808A6
:1020600060E08091D5030E94880860E08091B3030E
:102070000E94880895E0C92ED12CE12CF12C20E19A
:10208000422E512C612C712C1092E3021092E2022C
:1020900088E795E00E94870A0E94FE080091660486
:1020A000109167042091680430916904DC01CB0130
:1020B000801B910BA20BB30B80319742A105B10598
:1020C00018F481E080936504809165048093640432
:1020D0008091E102882369F080916304882319F0DC
:1020E000109262040AC081E08093620480936304CA
:1020F00004C0109262041092630410916204109361
:1021000061046EE076E084E794E00E94140580911B
:102110006004882331F180915F048823A1F06091ED
:102120005B0470915C0480915D0490915E042CEDE1
:1021300035E040E050E00E94B80B8823B1F081E028
:1021400080935A0412C081E080935F040E94FE08CD
:1021500060935B0470935C0480935D0490935E04D1
:1021600004C010925A0410925F0480915A048111A5
:1021700001C0812F80935904112309F403C181E028
:1021800020917804309179042132310508F480E0FF
:10219000809358048DB79EB7A5969FAF8EAFA59735
:1021A00064E774E082E994E00E94140562E974E057
:1021B000CE0188960E94C20500E010E080E090E029
:1021C0000F5F1F4FAC014F5F5F4F6BE2CE018896F0
:1021D0000E94B504181619069CF3000F111FADB725
:1021E000BEB7A01BB10B0FB6F894BEBF0FBEADBFFC
:1021F000EDB7FEB731961F016EE171E0CE01829618
:102200000E94CB05A3963FAE2EAEA397812C912CB6
:10221000C4010196A1969FAF8EAFA197AC016CE26D
:10222000CE0188960E94B5048C0154018815990549
:1022300010F45C0184016EE171E0CE0101960E9410
:10224000CB058CA59DA5A816B906C0F480179107EB
:1022500008F48C01E8A5F9A5E00FF11F9080108229
:1022600068A579A56A0D7B1DCE0101960E94FD042B
:1022700088A599A5FC01E00FF11F9082BE016F5F58
:102280007F4FCE0182960E942B05CE0101960E94BF
:1022900064058AA19BA1009719F00E942F2403C016
:1022A00060E070E0CB01A396AEADBFADA3976D9398
:1022B0007D93A396BFAFAEAFA397A1964EAD5FAD92
:1022C000A1976BE2CE0188960E94B50401964C015D
:1022D000181619060CF49CCFF1018281938190931A
:1022E00057048093560424813581309355042093FC
:1022F000540442855385509353044093520460899B
:10230000718970935104609350040488F589E02D1D
:10231000F0934F04E0934E04F0930301E093020125
:1023200070934D0460934C0450930101409300015D
:1023300030934B0420934A049093490480934804BB
:1023400063E271E0CE0101960E94CB05BE016F5F92
:102350007F4F84E794E00E942B05CE0101960E94F6
:102360006405CE0182960E946405CE0188960E9483
:102370006405A5968EAD9FADA5970FB6F8949EBF48
:102380000FBE8DBF8091470481110FC081E0809303
:102390004704809346040E94FE08609342047093B1
:1023A0004304809344049093450480914704882318
:1023B00001F1609142047091430480914404909132
:1023C00045042AEF30E040E050E00E94B80B88233B
:1023D00081F00E94FE08609342047093430480934E
:1023E0004404909345049091460481E089278093AA
:1023F000460490914604992369F080914104882312
:1024000019F0109240040AC081E080934004809348
:10241000410404C010924004109241048091400491
:1024200080933F0491110DC090913E04992319F0BF
:1024300010923D040AC091E090933D0490933E04B5
:1024400004C010923D0410923E0410913D0410937C
:102450003C0420916004882319F091E0922701C088
:1024600090E090933B048111182F10933A042111AE
:1024700017C090913904911113C0882389F080917D
:10248000380481110FC08091360490913704019671
:10249000909337048093360481E08093380402C01F
:1024A0001092380480913504882321F0109237046B
:1024B0001092360481E020913604309137042A309E
:1024C00031050CF480E0809335048823B9F001E0F5
:1024D00020912D0430912E0440912F04509130040E
:1024E00060913104709132048091330490913404EE
:1024F0000E94362A87FD00E000932C04112341F14D
:1025000080E480937C0080917A00806480937A00DC
:1025100080917A0086FDFCCF6091780080917900EF
:1025200070E0782B60557109072E000C880B990B11
:102530000E94542720E030E045E253E40E948E29B7
:1025400060932D0470932E0480932F049093300495
:1025500080912C048823E1F020912D0430912E04E9
:1025600040912F04509130046091310470913204F5
:1025700080913304909134040E94212960932804AF
:102580007093290480932A0490932B0410922C04B6
:1025900080913504882381F080912D0490912E0440
:1025A000A0912F04B09130048093310490933204B1
:1025B000A0933304B093340480913B04882309F43E
:1025C00088C085E0809327048AE190E090932604F8
:1025D0008093250485E00E942F0820EC34ED41E033
:1025E00050E0019711F460E001C061E085E00E94D5
:1025F000FD07A70196010E94F02820932104309343
:10260000220440932304509324048090210490904A
:102610002204A0902304B090240481149104A10406
:10262000B10499F1A0912504B0912604A50194016B
:102630000E94B1289B01AC0160E071EE85EF95E04E
:102640000E94F0283093200420931F04C501B40198
:102650000E9452270E94412A20E030E040E450E4EA
:102660000E94B3270E94002A70931E0460931D04E9
:1026700060EA76E881E090E0A50194010E94F028EC
:1026800030931C0420931B040CC010922004109261
:102690001F0410921E0410921D0410921C0410922C
:1026A0001B0480911B0490911C0490931A04809346
:1026B000190480911D0490911E0490931804809336
:1026C000170480911F049091200490931604809326
:1026D0001504809115049091160420913B0418165E
:1026E000190614F4322F01C030E030931404311174
:1026F00002C0322F01C030E03093130421110DC00D
:1027000020911204222319F0109211040AC021E032
:10271000209311042093120404C01092110410920B
:10272000120430916004311103C02091110401C0E2
:1027300020E02093100421110DC020910F042223CA
:1027400019F010920E040AC021E020930E04209389
:102750000F0404C010920E0410920F04311103C034
:1027600020910E0401C020E020930D0421110DC022
:1027700020910C04222319F010920B040AC021E0CE
:1027800020930B0420930C0404C010920B041092AD
:102790000C0420910B04222311F021E02327209325
:1027A0000A0421110DC020910904222319F010926E
:1027B00008040AC021E0209308042093090404C0FF
:1027C000109208041092090420910804222311F0A9
:1027D00021E023272093070420911304222321F0D2
:1027E000109206041092050440911404181619065C
:1027F000A4F4442391F020910404211110C02091ED
:102800000504309106042F5F3F4F30930604209358
:10281000050421E02093040402C0109204042091D6
:1028200005043091060437FF02C02F5F3F4F3595F6
:10283000279530930304209302044423A1F197FDCC
:102840000196959587959093010480930004092E35
:10285000000CAA0BBB0B4091FC035091FD0360914F
:10286000FE037091FF03480F591F6A1F7B1F40939F
:10287000FC035093FD036093FE037093FF034091AC
:10288000F8035091F9036091FA037091FB03840FF0
:10289000951FA61FB71F8093F8039093F903A09389
:1028A000FA03B093FB0380911004882309F488C0D5
:1028B00086E08093F7038CE191E19093F603809397
:1028C000F50386E00E942F0820EC34ED41E050E053
:1028D000019711F460E001C061E086E00E94FD070D
:1028E000A70196010E94F0282093F1033093F20390
:1028F0004093F3035093F4038090F1039090F2031C
:10290000A090F303B090F40381149104A104B104E6
:1029100099F1A091F503B091F603A50194010E94ED
:10292000B1289B01AC0160E071EE85EF95E00E945B
:10293000F0283093F0032093EF03C501B4010E9407
:1029400052270E94412A20E030E040E450E40E94F7
:10295000B3270E94002A7093EE036093ED0360EAB0
:1029600076E881E090E0A50194010E94F028309380
:10297000EC032093EB030CC01092F0031092EF03D2
:102980001092EE031092ED031092EC031092EB0301
:102990008091EB039091EC039093EA038093E90319
:1029A0008091ED039091EE039093E8038093E70309
:1029B0008091EF039091F0039093E6038093E503F9
:1029C0004091E5035091E603423051051CF090918F
:1029D0003B0401C090E09093E403911103C0809107
:1029E0003B0401C080E08093E303882321F0109230
:1029F000E2031092E10314161506A4F4992391F052
:102A00008091E003811110C02091E1033091E20335
:102A10002F5F3F4F3093E2032093E10381E08093E7
:102A2000E00302C01092E0032091E1033091E20341
:102A300037FF02C02F5F3F4F359527953093DF0357
:102A40002093DE039923A9F1CA0157FD01969595BC
:102A500087959093010480930004092E000CAA0B23
:102A6000BB0B4091DA035091DB036091DC03709162
:102A7000DD03480F591F6A1F7B1F4093DA035093F1
:102A8000DB036093DC037093DD034091D603509128
:102A9000D7036091D8037091D903840F951FA61FA7
:102AA000B71F8093D6039093D703A093D803B09316
:102AB000D90380910D04882309F488C087E08093AE
:102AC000D5038CE191E19093D4038093D30387E005
:102AD0000E942F0820EC34ED41E050E0019711F402
:102AE00060E001C061E087E00E94FD07A701960158
:102AF0000E94F0282093CF033093D0034093D1035A
:102B00005093D2038090CF039090D003A090D10334
:102B1000B090D20381149104A104B10499F1A09161
:102B2000D303B091D403A50194010E94B1289B0165
:102B3000AC0160E071EE85EF95E00E94F0283093E3
:102B4000CE032093CD03C501B4010E9452270E94F9
:102B5000412A20E030E040E450E40E94B3270E9484
:102B6000002A7093CC036093CB0360EA76E881E09F
:102B700090E0A50194010E94F0283093CA032093AD
:102B8000C9030CC01092CE031092CD031092CC0357
:102B90001092CB031092CA031092C9038091C9030B
:102BA0009091CA039093C8038093C7038091CB038D
:102BB0009091CC039093C6038093C5038091CD037D
:102BC0009091CE039093C4038093C3034091C303B9
:102BD0005091C403423051051CF090913B0401C058
:102BE00090E09093C203911103C080913B0401C017
:102BF00080E08093C103882321F01092C0031092DB
:102C0000BF0314161506A4F4992391F08091BE0316
:102C1000811110C02091BF033091C0032F5F3F4F3F
:102C20003093C0032093BF0381E08093BE0302C0B2
:102C30001092BE032091BF033091C00337FF02C042
:102C40002F5F3F4F359527953093BD032093BC03ED
:102C50009923A9F1CA0157FD0196959587959093FF
:102C6000010480930004092E000CAA0BBB0B4091B9
:102C7000B8035091B9036091BA037091BB03480F38
:102C8000591F6A1F7B1F4093B8035093B903609389
:102C9000BA037093BB034091B4035091B5036091A4
:102CA000B6037091B703840F951FA61FB71F8093BB
:102CB000B4039093B503A093B603B093B703809188
:102CC0000A04882309F488C088E08093B30382EC67
:102CD00091E09093B2038093B10388E00E942F08A3
:102CE00020E336EE42E050E0019711F460E001C0CD
:102CF00061E088E00E94FD07A70196010E94F0288C
:102D00002093AD033093AE034093AF035093B003D1
:102D10008090AD039090AE03A090AF03B090B0034D
:102D200081149104A104B10499F1A091B103B0916F
:102D3000B203A50194010E94B1289B01AC0160E09F
:102D400071EE85EF95E00E94F0283093AC0320935C
:102D5000AB03C501B4010E9452270E94412A20E022
:102D600030E040E450E40E94B3270E94002A7093B0
:102D7000AA036093A90360EA76E881E090E0A501E8
:102D800094010E94F0283093A8032093A7030CC05D
:102D90001092AC031092AB031092AA031092A903F5
:102DA0001092A8031092A7038091A7039091A80303
:102DB0009093A6038093A5038091A9039091AA0301
:102DC0009093A4038093A3038091AB039091AC03F1
:102DD0009093A2038093A1032091A1033091A203B9
:102DE00081E0223031050CF480E08093A003811152
:102DF00080913B0480939F03811103C090913B0419
:102E000001C090E090939E03992321F010929D03BE
:102E100010929C0312161306A4F4882391F090914B
:102E20009B03911110C040919C0350919D034F5FF3
:102E30005F4F50939D0340939C0391E090939B03BD
:102E400002C010929B0340919C0350919D0357FF39
:102E500002C04F5F5F4F5595479550939A0340933B
:102E600099038823A9F1C90137FD019695958795A6
:102E70009093010480930004092E000CAA0BBB0B55
:102E80004091950350919603609197037091980338
:102E9000480F591F6A1F7B1F409395035093960359
:102EA000609397037093980340919103509192031C
:102EB0006091930370919403840F951FA61FB71F11
:102EC0008093910390939203A0939303B093940300
:102ED0008091150490911604892B79F48091E50373
:102EE0009091E603892B49F48091C3039091C40328
:102EF000892B19F481E0232B09F080E08093900363
:102F0000811106C081E080938F0380938E0326C0D9
:102F100080918E03882369F010928E030E94FE0830
:102F200060938A0370938B0380938C0390938D033B
:102F300015C080918F03882389F060918A03709176
:102F40008B0380918C0390918D0328EE33E040E059
:102F500050E00E94B80B811110928F0380918F0373
:102F6000882321F08091070481110DC0809189038D
:102F7000882319F0109288030AC081E080938803A7
:102F80008093890304C01092880310928903809172
:102F90008803809387038091140481111092860323
:102FA00080911304882319F081E080938603809137
:102FB000860381110DC080918503882319F010923A
:102FC00084030AC081E0809384038093850304C056
:102FD000109284031092850380918403809383036D
:102FE000009117041091180410161106A4F4809192
:102FF0008203811114C081E0809382038093810356
:103000000E94FE0860937D0370937E0380937F038C
:103010009093800304C010928203109281038091E8
:103020008203882301F19801110F440B550B609125
:103030007D0370917E0380917F03909180030E94B5
:10304000B80B882381F00E94FE0860937D03709383
:103050007E0380937F03909380039091810381E0AE
:103060008927809381036091810383E10E9458083E
:103070000091E7031091E80310161106A4F4809163
:103080007C03811114C081E080937C0380937B03D7
:103090000E94FE086093770370937803809379030E
:1030A00090937A0304C010927C0310927B0380916A
:1030B0007C03882301F19801110F440B550B60919B
:1030C0007703709178038091790390917A030E943D
:1030D000B80B882381F00E94FE08609377037093F9
:1030E00078038093790390937A0390917B0381E036
:1030F000892780937B031091760360917B0361277E
:1031000082E10E945808A090C503B090C6031A142B
:103110001B04A4F480917503811114C081E0809395
:103120007503809374030E94FE086093700370938C
:103130007103809372039093730304C0109275031C
:103140001092740380917503882301F19501BB0CE3
:10315000440B550B60917003709171038091720361
:10316000909173030E94B80B882381F00E94FE089F
:103170006093700370937103809372039093730351
:103180009091740381E089278093740360917403A4
:10319000612781E10E9458080091A3031091A403C4
:1031A00010161106A4F480916F03811114C081E000
:1031B00080936F0380936E030E94FE0860936A03FE
:1031C00070936B0380936C0390936D0304C0109213
:1031D0006F0310926E0380916F03882301F19801B1
:1031E000110F440B550B60916A0370916B03809132
:1031F0006C0390916D030E94B80B882381F00E94AC
:10320000FE0860936A0370936B0380936C03909342
:103210006D0390916E0381E0892780936E03609126
:103220006E0380E10E945808809115049091160465
:10323000892B69F480916903882319F0109268033F
:103240000AC081E0809368038093690304C01092F0
:103250006803109269031091680310936703109339
:103260006603112331F180916503811122C00E9410
:10327000FE088090610390906203A0906303B09079
:103280006403681979098A099B0928EE33E040E054
:1032900050E00E94F0283093600320935F030E9467
:1032A000FE086093610370936203809363039093BD
:1032B00064031093650320915F03309160033093A2
:1032C0005E0320935D03809148049091490409971F
:1032D00041E00A9708F040E040935C0311E02E3291
:1032E00031050CF410E010935B03809139048823BE
:1032F00031F180915A038823A1F0609156037091B7
:103300005703809158039091590320E43FE140E036
:1033100050E00E94B80B8823B1F081E08093550300
:1033200012C081E080935A030E94FE086093560306
:1033300070935703809358039093590304C01092DD
:10334000550310925A030091550381E08027809322
:103350005403112349F0011107C080915C038823B5
:1033600021F08091530301C080E080937603112304
:1033700049F0011107C060915C03662321F0609160
:10338000530301C060E08AE00E945808112351F005
:10339000011107C010915C03112321F01091530318
:1033A00001C010E0612F8BE00E94580880916404F6
:1033B0008823A1F080915203811114C081E0809391
:1033C0005203809351030E94FE0860934D03709353
:1033D0004E0380934F039093500304C01092520306
:1033E0001092510380915203882301F160914D03A3
:1033F00070914E0380914F039091500320E335E785
:1034000040E050E00E94B80B882381F00E94FE0843
:1034100060934D0370934E0380934F03909350033A
:103420009091510381E0892780935103909151033A
:1034300081E0292F282749F030914C03311105C034
:1034400030914B03832780934B0320934C0380914F
:103450004B0380934A03992369F0809149038823A1
:1034600019F0109248030AC081E0809348038093CA
:10347000490304C010924803109249031091480375
:103480001093470380914603882319F01092460356
:1034900012C080914A0490914B04209144033091D2
:1034A00045038217930739F09093450380934403B3
:1034B00081E08093460380914603811126C080916C
:1034C00043038823A1F060913F03709140038091F2
:1034D00041039091420320EA38E646E050E00E9422
:1034E000B80B8823B1F081E080933E0312C081E0E5
:1034F000809343030E94FE0860933F037093400350
:10350000809341039093420304C010923E031092B3
:103510004303112389F080913D0381110FC08091F5
:103520003B0390913C03019690933C0380933B03B3
:1035300081E080933D0302C010923D0380915804C6
:10354000882321F010923C0310923B0380913B03AF
:1035500090913C0390933A03809339030A971CF4AB
:1035600080913E0301C081E08093380310933703BC
:103570001123D1F180913603811136C08091E00290
:10358000882391F11092D4041092D3042091C404A2
:103590003091C5044091C6045091C70457FD24C022
:1035A00002E010E069E270E08091C8049091C904E3
:1035B0000E94CD0949E050E066E471E08091C804C2
:1035C0009091C9040E946A0949E050E066E471E004
:1035D0008091C8049091C9040E946A098091C8042E
:1035E0009091C9040E945409809137038093360357
:1035F00080915904811110923503809147038823EB
:1036000019F081E080933503809135038093600445
:1036100080913803882389F060E571E0CE0101963E
:103620000E94CB05BE016F5F7F4F80E894E00E944F
:103630002B05CE0101960E9464058091480490916B
:103640004904029731F5809134038823A1F06091F9
:10365000300370913103809132039091330320E461
:103660003DE043E050E00E94B80B8823B1F081E0D8
:1036700080932F0312C081E0809334030E94FE08E0
:10368000609330037093310380933203909333033C
:1036900004C010922F031092340380912F038823CB
:1036A00069F080912E03882319F010922D030AC02F
:1036B00081E080932D0380932E0304C010922D038C
:1036C00010922E0380912D0380932C03882301F107
:1036D0001092F8031092F9031092FA031092FB0370
:1036E0001092D6031092D7031092D8031092D903E8
:1036F0001092B4031092B5031092B6031092B70360
:1037000010929103109292031092930310929403DB
:1037100020914C0430914D04C9018770992711E024
:10372000181619060CF010E01093530341E0C9017C
:10373000887D9927181619060CF040E040932B035A
:1037400091E031FF90E090932A03809129031123A7
:1037500011F0816001C08E7F8093290320915B036B
:1037600080912903222311F0826001C08D7F809314
:1037700029032091540380912903222311F08460AE
:1037800001C08B7F809329032091760380912903C8
:10379000222311F0886001C0877F809329038091E4
:1037A0002903282F2F7C992319F0822F806401C0D0
:1037B0008F788093290390915C038091290399234A
:1037C00011F0806801C08F778093290380912903CD
:1037D000809328032FE832EC45E75CE360912804EE
:1037E0007091290480912A0490912B040E944D2706
:1037F000181644F1809127038823B1F060912303C8
:1038000070912403809125039091260320EC34EDE0
:1038100041E050E00E94B80B8823C1F081E0809322
:10382000220311111BC014C081E0809327030E9462
:10383000FE086093230370932403809325039093E1
:10384000260304C01092220310922703111102C014
:103850001092210380912203882369F0809139041A
:10386000811109C0112339F080914A03882319F08E
:1038700081E08093210380912103882369F0809166
:103880002003882319F010921F030AC081E080935F
:103890001F038093200304C010921F031092200383
:1038A00080911F0380931E03882389F06AE571E0ED
:1038B000CE0101960E94CB05BE016F5F7F4F80E86D
:1038C00094E00E942B05CE0101960E946405809031
:1038D0002D0490902E04A0902F04B090300420E08E
:1038E00030E040E650E4C501B4010E94362A1816C3
:1038F00014F410921D0326E636E646E250E4C501B4
:10390000B4010E944D2787FF03C081E080931D030F
:1039100026E636E646E65FE3C501B4010E94362A94
:1039200018169CF423E333E343E750E4C501B401E4
:103930000E944D2787FF09C080911D03882331F025
:1039400090911C0381E0892701C080E080933904B5
:1039500026E636E646E65FE3C501B4010E94362A54
:1039600018169CF423E333E343E750E4C501B401A4
:103970000E944D2787FF09C060911D03662331F027
:1039800060911C0381E0682701C060E089E00E942B
:10399000580826E636E646EE5FE3C501B4010E940C
:1039A0004D27182F111F1127111F01E00127009328
:1039B0005C0326E636E646EA5FE3C501B4010E94F1
:1039C000362A18160CF010E010935403BB24B3945D
:1039D00020E030E0A90160912804709129048091D1
:1039E0002A0490912B040E94362A87FDB12CB092B4
:1039F0001B03002349F010921A031123F1F0809168
:103A00006004811109C003C01111F9CF05C0BB20AA
:103A100019F081E080931A0380911A03882369F0DA
:103A200080911903882319F0109218030AC081E0CD
:103A3000809318038093190304C010921803109206
:103A400019038091180380931703882389F067E690
:103A500071E0CE0101960E94CB05BE016F5F7F4FE2
:103A600080E894E00E942B05CE0101960E94640537
:103A700080902D0490902E04A0902F04B0903004DC
:103A800023E333E343E35FE3C501B4010E94362A35
:103A9000181664F42AE939E949E95FE3C501B4017C
:103AA0000E944D27881F8827881F01C080E08093CF
:103AB000540390915C03992349F0109216038823D4
:103AC00001F18091600481110BC003C08111F9CF15
:103AD00007C080911B03882319F081E080931603AF
:103AE00080911603882369F080911503882319F0CB
:103AF000109214030AC081E080931403809315038D
:103B000004C0109214031092150380911403809343
:103B10001303882389F065E771E0CE0101960E94C6
:103B2000CB05BE016F5F7F4F80E894E00E942B05BC
:103B3000CE0101960E94640510913904112349F0C9
:103B400011E080911504909116048C3291400CF094
:103B500010E026E636E646E250E460912D047091CE
:103B60002E0480912F04909130040E944D27881FCD
:103B70008827881F01E0082700935C03882329F029
:103B8000112321F010911B0301C010E01093540386
:103B9000112341F1809112038823B1F060910E034B
:103BA00070910F03809110039091110328E833E185
:103BB00040E050E00E94B80B8823C1F081E0809380
:103BC0000D03011114C019C081E0809312030E94FB
:103BD000FE0860930E0370930F038093100390937D
:103BE000110304C010920D031092120301111092E0
:103BF0000C0380910D03882339F0809160048111BA
:103C000003C081E080930C0380910C0380931C031C
:103C1000882389F063E871E0CE0101960E94CB050C
:103C2000BE016F5F7F4F80E894E00E942B05CE01BC
:103C300001960E94640580914A03811103C010928D
:103C40000B0307C080910704882319F081E080935B
:103C50000B0380910B03882369F080910A0388236A
:103C600019F0109209030AC081E080930903809340
:103C70000A0304C01092090310920A032091090359
:103C800020930803222389F08091070381110FC03C
:103C9000809105039091060301969093060380930B
:103CA000050381E08093070302C01092070380910F
:103CB0000403882321F010920603109205036091FB
:103CC000050370910603709303036093020322239C
:103CD00029F0709301036093000304C01092010364
:103CE00010920003809100039091010331E088302D
:103CF000910509F030E03093040331E087309105FD
:103D000009F030E03093FF0231E08630910509F090
:103D100030E03093FE0231E08530910509F030E06B
:103D20003093FD0231E08430910509F030E03093AA
:103D3000FC0231E08330910509F030E03093FB0262
:103D400031E08230910509F030E03093FA0231E041
:103D5000019709F030E03093F902222351F14AE053
:103D6000CE0101960E94960567E971E0CE01889622
:103D70000E94CB05BE01685D7F4FCE0182960E94F6
:103D8000C205BE016F5F7F4FCE0182960E94EA049A
:103D9000BC018AE794E00E941405CE0182960E943D
:103DA0006405CE0188960E946405CE0101960E94AA
:103DB00064058091F902882331F16091FC037091D0
:103DC000FD038091FE039091FF03A30192010E94E5
:103DD0008728BA01A9012AE0CE0101960E9469054F
:103DE000BE016F5F7F4F80E894E00E942B05CE01FB
:103DF00001960E9464051092FC031092FD0310923C
:103E0000FE031092FF038091FA02882331F1609142
:103E10009503709196038091970390919803A30165
:103E200092010E948728BA01A9012AE0CE010196D9
:103E30000E946905BE016F5F7F4F80E894E00E9499
:103E40002B05CE0101960E946405109295031092F5
:103E5000960310929703109298038091FB02882397
:103E600029F160912D0470912E0480912F0490917E
:103E700030041BA21AA21DA21CA21FA21EA28E0108
:103E80000F5F1F4F22E044E00E940F24BC01CE01CF
:103E900082960E94FD04BE016E5D7F4F80E894E033
:103EA0000E942B05CE0182960E9464058091FC023F
:103EB000882331F16091DA037091DB038091DC0398
:103EC0009091DD03A30192010E948728BA01A90104
:103ED0002AE0CE0101960E946905BE016F5F7F4F07
:103EE00080E894E00E942B05CE0101960E946405B3
:103EF0001092DA031092DB031092DC031092DD03C0
:103F00008091FD02882331F16091B8037091B9036B
:103F10008091BA039091BB03A30192010E9487286C
:103F2000BA01A9012AE0CE0101960E946905BE01ED
:103F30006F5F7F4F80E894E00E942B05CE010196D1
:103F40000E9464051092B8031092B9031092BA034C
:103F50001092BB038091FE02882301F160919103CE
:103F600070919203809193039091940328EE33E033
:103F700040E050E00E948728BA01A9012AE0CE0162
:103F800001960E946905BE016F5F7F4F80E894E053
:103F90000E942B05CE0101960E9464058091FF02CC
:103FA0008823A1F060910001709101014AE0CE01E7
:103FB00001960E949605BE016F5F7F4F80E894E0F6
:103FC0000E942B05CE0101960E9464058091040396
:103FD0008823A1F060910201709103014AE0CE01B3
:103FE00001960E949605BE016F5F7F4F80E894E0C6
:103FF0000E942B05CE0101960E94640580911C034E
:10400000811104C080913803882369F08091F802FF
:10401000882319F01092F7020AC081E08093F7021A
:104020008093F80204C01092F7021092F802809177
:10403000130381110AC080911703811106C080917A
:104040001E03811102C08091F7028093F60288233B
:10405000A1F06DE971E0CE0101960E94CB05BE0191
:104060006F5F7F4F8AE794E00E942B05CE01019697
:104070000E94640581E080930803809160048111AF
:10408000BEC08091F5028111BCC060915D0370914A
:104090005E034AE0CE0182960E94960565EA71E0D1
:1040A000CE0188960E94CB05809128031FA61EA6EC
:1040B00019AA18AA1BAA1AAA42E0BE016F5F7F4F75
:1040C00090E00E94BD24BE016F5F7F4FCE018E96AF
:1040D0000E94FD0465EA71E0CE0101960E94CB05C5
:1040E00060914A0470914B044AE0CE01C4960E944C
:1040F000960563E371E0CE01CA960E94CB056091FC
:104100004804709149044AE0CE01805C9F4F0E94B0
:10411000960563E271E0CE018A5B9F4F0E94CB055A
:1041200060914C0470914D0442E0CE018E5A9F4F35
:104130000E949605BE016E5A7F4FCE01845B9F4F51
:104140000E94C205BE016A5B7F4FCE01845B9F4F18
:104150000E94EA04BE01605C7F4F0E94EA04BE0137
:10416000665C7F4F0E94EA04BE016C5C7F4F0E9438
:10417000EA04BE016F5F7F4F0E94EA04BE01625DE8
:104180007F4F0E94EA04BE01685D7F4F0E94EA04EF
:10419000BE016E5D7F4F0E94EA040E94700CCE014A
:1041A000845B9F4F0E946405CE018E5A9F4F0E94F0
:1041B0006405CE018A5B9F4F0E946405CE01805C3E
:1041C0009F4F0E946405CE01CA960E946405CE01ED
:1041D000C4960E946405CE0101960E946405CE013A
:1041E0008E960E946405CE0188960E946405CE01D9
:1041F00082960E94640581E08093F50202C01092CD
:10420000F50280910803882349F18091F40281111D
:1042100027C062E271E0CE0101960E94CB056AE7F9
:1042200074E0CE0182960E94C205BE016F5F7F4F8F
:10423000CE0182960E94EA0460E874E00E94EA04DB
:104240000E94700CCE0182960E946405CE010196F8
:104250000E94640581E08093F40202C01092F4028F
:104260006AE774E08CE894E00E941405109108035A
:104270001093F30260E874E086E894E00E9414056D
:10428000112309F46BC08091F202811167C0A090E4
:104290008604B090870480908C0490908D04F50182
:1042A00001900020E9F73197EA19FB096A96FFAF00
:1042B000EEAF6A976E961FAE6E976D961FAE6D97B6
:1042C00005E010E020E030E0A9016BE070E08091B3
:1042D000C2049091C3040E94CD09F4010190002012
:1042E000E9F73197AF0148195909B4018091C20427
:1042F0009091C3040E946A096A964EAD5FAD6A97B9
:10430000B5018091C2049091C3040E946A0942E001
:1043100050E0BE01685A7F4F8091C2049091C3045F
:104320000E946A0941E050E0BE01645A7F4F8091CB
:10433000C2049091C3040E946A0941E050E0BE01AA
:10434000635A7F4F8091C2049091C3040E946A090E
:104350008091C2049091C3040E9454098091F30299
:104360008093F20280913803882389F08091390488
:1043700081110DC08091F102882319F01092F00292
:104380000AC081E08093F0028093F10204C0109291
:10439000F0021092F1028091F00280935403109188
:1043A000EF02882331F180E190E00E947128082F0C
:1043B00081E190E00E947128202F30E0322F2227E7
:1043C000282B2F5F3F4F30930104209300041111DD
:1043D00013C04091F8035091F9036091FA03709172
:1043E000FB0380E090E00E94DC0C81E08093EF0210
:1043F00003C011111092EF02909154038091EE02CC
:10440000992391F0811113C04091D6035091D703A5
:104410006091D8037091D90384E090E00E94DC0C95
:1044200081E08093EE0203C081111092EE02909120
:1044300054038091ED02992391F0811113C04091B2
:10444000B4035091B5036091B6037091B70388E04F
:1044500090E00E94DC0C81E08093ED0203C08111AA
:104460001092ED02909154038091EC02992391F007
:10447000811113C040919103509192036091930375
:10448000709194038CE090E00E94DC0C81E08093BA
:10449000EC0203C081111092EC02909154038091C0
:1044A000EB02992329F1811126C01091000460913B
:1044B000010480E190E0A6966FAFA6970E94712854
:1044C000A6966FADA697681721F080E190E00E9454
:1044D000792881E190E00E947128181729F0612F56
:1044E00081E190E00E94792881E08093EB0203C093
:1044F00081111092EB02809154038093EA02882389
:1045000031F09091E902911102C00C940000809367
:10451000E9028091E802882319F01092E70205C0B1
:1045200081E08093E7028093E8028091E702809324
:104530005C03882309F486C080E090E00E94AE0C02
:104540006093F8037093F9038093FA039093FB034D
:1045500084E090E00E94AE0C6093D6037093D70382
:104560008093D8039093D90388E090E00E94AE0C2A
:104570006093B4037093B5038093B6039093B7032D
:104580008CE090E00E94AE0C6093910370939203D4
:10459000809393039093940380E190E00E947128AC
:1045A000182F81E190E00E947128612F70E0762F32
:1045B0006627682B70930104609300048091E602E3
:1045C000811140C04AE0CE0101960E94960569EA39
:1045D00071E0CE0182960E94CB054091F803509184
:1045E000F9036091FA037091FB032AE0CE018E96E5
:1045F0000E946905BE01625D7F4FCE0188960E94D0
:10460000C205BE016E5D7F4FCE0188960E94EA040E
:10461000BE016F5F7F4F0E94EA040E94700CCE01C2
:1046200088960E946405CE018E960E946405CE0194
:1046300082960E946405CE0101960E94640581E085
:104640008093E6020E9493020C94441084E794E065
:104650000E9464058AE794E00E94640580E894E083
:104660000E94640586E894E00E9464058CE894E06A
:104670000E94640582E994E00E94640588E994E060
:104680000E9464058EE994E00E94640584EA94E047
:104690000E9464058EE096E00C946405CF93DF934E
:1046A000CBEDD4E01B821A8288EE93E0A0E0B0E06C
:1046B0008C839D83AE83BF838EE091E09983888352
:1046C00085EC90E09D878C8784EC90E09F878E87B7
:1046D00080EC90E0998B888B81EC90E09B8B8A8BAF
:1046E00082EC90E09D8B8C8B86EC90E09F8B8E8B88
:1046F000198E1A8E1B8E1C8E6EE171E08EE096E094
:104700000E94CB05E8E7F5E0D183C08313821282D3
:1047100015821482D387C28781E084878EE895E072
:10472000908B878780E890E0928B818B148A138A24
:10473000158AA4ECB4E017961C921E92169719964F
:104740001C921E9218971E961C921E971596FC930B
:10475000EE9314974FEF5FEFBA014D935D936D9316
:104760007C931397AAEAB4E011961C921E921396BA
:104770001C921E92129717961C921E9216971996CB
:104780001C921E9218971D961C921E921C971F96A3
:104790001C921E921E9753961C921E9252975596EB
:1047A0001C921E9254975996FC93EE9358976EE183
:1047B00071E084EA94E00E94CB056EE171E08EE93D
:1047C00094E00E94CB056EE171E088E994E00E94DC
:1047D000CB056EE171E082E994E00E94CB056EE1C9
:1047E00071E08CE894E00E94CB056EE171E086E810
:1047F00094E00E94CB056EE171E080E894E00E94B5
:10480000CB056EE171E08AE794E00E94CB056EE192
:1048100071E084E794E0DF91CF910C94CB05EF92A7
:104820000F931F93CF93DF93E80147FD02C034E05D
:1048300001C034E1E42F440FFF0BF7FF03C0F195F3
:10484000E195F109E32E022F2E2FAE010E94D7240D
:10485000CE01DF91CF911F910F91EF9008951F939B
:10486000FC0199278827BC01E89411911032E9F3E3
:10487000193010F01E30C8F31B3251F01D3249F4CC
:10488000689406C00E948624610F711D811D911DD0
:10489000119110531A30B0F33EF4909580957095B5
:1048A00061957F4F8F4F9F4F1F910895453251055E
:1048B00020F4423010F00C946124FB011082CB01F3
:1048C0000895BB274A3031F4992322F4BDE2909534
:1048D00081959F4F0C94BE242532310520F422305F
:1048E00010F00C947724FA011082CA010895BB27B6
:1048F0002A3051F4992342F4BDE290958095709549
:1049000061957F4F8F4F9F4F0C949C24592F482FB8
:10491000372F262F660F771F881F991F660F771F67
:10492000881F991F620F731F841F951F660F771FC3
:10493000881F991F0895BB27FA01A62F62177105DA
:1049400081059105330B30FB66F0AA27660F771FB0
:10495000881F991FAA1FA21710F0A21B6395385039
:10496000A9F7A05DAA3308F0A95DA19336F7B111AC
:10497000B1931082CA010C943D27BB27FB01552738
:10498000AA27880F991FAA1FA41710F0A41B8395AC
:104990005051B9F7A05DAA3308F0A95DA193009723
:1049A00079F7B111B1931192CB010C943D274F923D
:1049B0005F926F927F929F92AF92BF92CF92DF925F
:1049C000EF92FF920F931F93CF93DF93CDB7DEB794
:1049D00029970FB6F894DEBF0FBECDBF6A01122F24
:1049E000B02E2BE3201720F0FF24F394F00E02C02A
:1049F000BCE3FB2E0F2D27E0AE014F5F5F4F0E94FF
:104A00006526AC018981982F9970913031F0E1FCD5
:104A100006C0E0FE06C090E205C09DE203C09BE236
:104A200001C090E0EE2DE07183FF3CC0911102C007
:104A300083E001C084E0811718F4212F281B01C0F6
:104A400020E0E1110BC0F601822F30E2882319F03B
:104A500031938150FBCFC20ED11C20E0992329F065
:104A6000D6019C93F60131966F01C6010396E2FED2
:104A70000AC03EE4D6013C9341E411964C93119751
:104A800012963C9306C03EE6F601308341E6418330
:104A90003283FC01322F40E2332309F442C04193B8
:104AA0003150FACF82FF44C0911102C083E001C0AF
:104AB00084E0811718F4212F281B01C020E0E111A8
:104AC0000BC0F601822F30E2882319F03193815018
:104AD000FBCFC20ED11C20E0992329F0D6019C9374
:104AE000F60131966F01C6010396E2FE0BC039E470
:104AF000D6013C933EE411963C93119736E412960E
:104B00003C9307C039E6F60130833EE6318336E652
:104B10003283FC01322F40E2332319F041933150AC
:104B2000FBCFFC01E20FF11D10828EEF9FEFB7C0AB
:104B3000F1E0911101C0F0E06F2F70E0141615063E
:104B400024F49A012F5F3F4F02C021E030E0260F8E
:104B5000371FBB2029F06B2D70E06F5F7F4F02C0C5
:104B600060E070E0260F371F612F70E026173707CF
:104B70001CF4121B212F01C020E03E2D387159F486
:104B8000D601322F60E2332319F06D933150FBCF01
:104B9000C20ED11C20E0FF2331F0D6019C93B60158
:104BA0006F5F7F4F6B01E1110BC0F601922F30E375
:104BB000992319F031939150FBCFC20ED11C20E004
:104BC0009F2D940F3A81782F7071A72E84FF03C018
:104BD000313309F49150191624F4993018F098E003
:104BE00001C091E0E42F852F57FF02C0E0E080E094
:104BF0006E2F782FE0E0F0E0AEE29A2E3A01691ACB
:104C000071082A01461A570A0B2D10E011950195DB
:104C100011096F3F8FEF780729F4D6019C92C601E6
:104C200001966C014617570784F0661677066CF4F8
:104C30007F01E40CF51CA1E0B0E0AC0FBD1FEA0E53
:104C4000FB1ED7011196BC9002C090E3B92E6150B3
:104C500071093196C60101967C016017710724F035
:104C6000D601BC926C01D5CF6417750741F4363379
:104C700020F4353321F4A11002C081E3B82EF601EF
:104C8000B082F701822F90E2882319F0919381502E
:104C9000FBCFF701E20FF11D108280E090E0299632
:104CA0000FB6F894DEBF0FBECDBFDF91CF911F913D
:104CB0000F91FF90EF90DF90CF90BF90AF909F90BB
:104CC0007F906F905F904F900895283008F027E014
:104CD0003327DA01990F311D87FD91600096610538
:104CE000710539F432602E5F3D9330E32A95E1F788
:104CF00008959F3F30F080387105610509F03C5FF1
:104D00003C5F3D93913008F08068911DDF93CF9315
:104D10001F930F93FF92EF92192F987F9695E92F8B
:104D200096959695E90FFF27EE53FF4F9927332766
:104D3000EE24FF24A701E70105900894079428F4C6
:104D4000360FE71EF81E491F511D660F771F881F7B
:104D5000991F0694A1F70590079428F4E70EF81E12
:104D6000491F561FC11D770F881F991F661F069484
:104D7000A1F70590079428F4F80E491F561FC71F86
:104D8000D11D880F991F661F771F0694A1F7059004
:104D9000079420F4490F561FC71FD81F990F661F8D
:104DA000771F881F0694A9F784911095177041F01A
:104DB000D695C79557954795F794E7941A95C1F7F7
:104DC000E8E6F0E06894159015913591659195911C
:104DD00005907FE27395E118F10A430B560BC90B5E
:104DE000D009C0F7E10CF11E431F561FC91FD01D8B
:104DF0007EF4703311F48A95E6CFE894015030F0D8
:104E0000080F0AF40027021708F4202F2395022F19
:104E10007A3328F079E37D932A95E9F710C07D93E2
:104E20002A9589F60694979567953795179517945F
:104E3000E118F10A430B560BC90BD00998F02395E2
:104E40007E9173957A3308F070E37C932013B8F762
:104E50007E9170617D9330F0839571E37D9370E373
:104E60002A95E1F71124EF90FF900F911F91CF91B8
:104E7000DF91992787FD90950895DC01FC01672F4C
:104E800071917723E1F7329704C07C916D93708321
:104E90006291AE17BF07C8F308950E948F2708F4E8
:104EA00081E00895E89409C097FB3EF490958095C1
:104EB000709561957F4F8F4F9F4F9923A9F0F92FE0
:104EC00096E9BB279395F695879577956795B7955E
:104ED000F111F8CFFAF4BB0F11F460FF1BC06F5F44
:104EE0007F4F8F4F9F4F16C0882311F096E911C056
:104EF000772321F09EE8872F762F05C0662371F077
:104F000096E8862F70E060E02AF09A95660F771F8A
:104F1000881FDAF7880F9695879597F90895990F66
:104F20000008550FAA0BE0E8FEEF16161706E80773
:104F3000F907C0F012161306E407F50798F0621B94
:104F4000730B840B950B39F40A2661F0232B242B69
:104F5000252B21F408950A2609F4A140A6958FEF88
:104F6000811D811D08950E94C6270C9437280E9438
:104F7000292838F00E94302820F0952311F00C9455
:104F800020280C94262811240C946B280E94482871
:104F900070F3959FC1F3950F50E0551F629FF0018C
:104FA000729FBB27F00DB11D639FAA27F00DB11DA5
:104FB000AA1F649F6627B00DA11D661F829F22272E
:104FC000B00DA11D621F739FB00DA11D621F839FB5
:104FD000A00D611D221F749F3327A00D611D231F8B
:104FE000849F600D211D822F762F6A2F11249F57D9
:104FF00050409AF0F1F088234AF0EE0FFF1FBB1FDC
:10500000661F771F881F91505040A9F79E3F51059A
:1050100080F00C9420280C946B285F3FE4F3983EBA
:10502000D4F3869577956795B795F795E7959F5F44
:10503000C1F7FE2B880F911D9695879597F90895D6
:1050400097F99F6780E870E060E008959FEF80EC3B
:10505000089500240A9416161706180609060895DE
:1050600000240A9412161306140605060895092E44
:105070000394000C11F4882352F0BB0F40F4BF2BB3
:1050800011F460FF04C06F5F7F4F8F4F9F4F0895F3
:1050900057FD9058440F551F59F05F3F71F04795E9
:1050A000880F97FB991F61F09F3F79F087950895CE
:1050B000121613061406551FF2CF4695F1DF08C0ED
:1050C000161617061806991FF1CF8695710561050A
:1050D00008940895E894BB2766277727CB0197F9B2
:1050E0000895F999FECF92BD81BDF89A992780B5B0
:1050F0000895262FF999FECF1FBA92BD81BD20BD1C
:105100000FB6F894FA9AF99A0FBE01960895052EF3
:1051100097FB1EF400940E949E2857FD07D00E9422
:10512000F02807FC03D04EF40C949E28509540952F
:10513000309521953F4F4F4F5F4F08959095809543
:10514000709561957F4F8F4F9F4F08950E94122950
:10515000A59F900DB49F900DA49F800D911D1124CB
:105160000895B7FF0C94A6280E94A628821B930BD3
:1051700008952F923F924F925F926F927F928F92FB
:105180009F92AF92BF92CF92DF92EF92FF920F93D6
:105190001F93CF93DF93CDB7DEB7CA1BDB0B0FB6E0
:1051A000F894DEBF0FBECDBF09942A88398848889D
:1051B0005F846E847D848C849B84AA84B984C88433
:1051C000DF80EE80FD800C811B81AA81B981CE0F2A
:1051D000D11D0FB6F894DEBF0FBECDBFED0108950F
:1051E000A1E21A2EAA1BBB1BFD010DC0AA1FBB1FEB
:1051F000EE1FFF1FA217B307E407F50720F0A21B5D
:10520000B30BE40BF50B661F771F881F991F1A94C9
:1052100069F760957095809590959B01AC01BD01F3
:10522000CF010895A29FB001B39FC001A39F700D4D
:10523000811D1124911DB29F700D811D1124911D9E
:1052400008955058BB27AA270E9439290C94372863
:105250000E94292838F00E94302820F039F49F3F1E
:1052600019F426F40C9426280EF4E095E7FB0C9430
:105270002028E92F0E94482858F3BA1762077307BD
:105280008407950720F079F4A6F50C946A280EF4AB
:10529000E0950B2EBA2FA02D0B01B90190010C0146
:1052A000CA01A0011124FF27591B99F0593F50F45E
:1052B000503E68F11A16F040A22F232F342F4427B6
:1052C000585FF3CF469537952795A795F0405395AE
:1052D000C9F77EF41F16BA0B620B730B840BBAF07E
:1052E0009150A1F0FF0FBB1F661F771F881FC2F7E9
:1052F0000EC0BA0F621F731F841F48F487957795FD
:105300006795B795F7959E3F08F0B0CF9395880FB6
:1053100008F09927EE0F9795879508950E94A22986
:105320000C9437280E94302858F00E94292840F019
:1053300029F45F3F29F00C94202851110C946B281C
:105340000C9426280E94482868F39923B1F355232A
:1053500091F3951B550BBB27AA2762177307840788
:1053600038F09F5F5F4F220F331F441FAA1FA9F31E
:1053700035D00E2E3AF0E0E832D091505040E6950C
:10538000001CCAF72BD0FE2F29D0660F771F881F6D
:10539000BB1F261737074807AB07B0E809F0BB0B60
:1053A000802DBF01FF2793585F4F3AF09E3F510574
:1053B00078F00C9420280C946B285F3FE4F3983E1F
:1053C000D4F3869577956795B795F7959F5FC9F75D
:1053D000880F911D9695879597F90895E1E0660FDE
:1053E000771F881FBB1F621773078407BA0720F057
:1053F000621B730B840BBA0BEE1F88F7E0950895C0
:105400000E94072A6894B1110C946B2808950E9499
:10541000502888F09F5798F0B92F9927B751B0F0CE
:10542000E1F0660F771F881F991F1AF0BA95C9F728
:1054300014C0B13091F00E946A28B1E008950C9434
:105440006A28672F782F8827B85F39F0B93FCCF3E7
:10545000869577956795B395D9F73EF490958095A5
:10546000709561957F4F8F4F9F4F08950E948F27B2
:1054700008F48FEF089519F416F40C9426280C9470
:10548000812A0E945028B8F39923C9F3B6F39F5795
:10549000550B87FF0E948F2A0024A0E640EA900166
:1054A00080585695979528F4805C660F771F881F63
:1054B00020F026173707480730F4621B730B840B64
:1054C000202931294A2BA6951794079420253125A8
:1054D0004A2758F7660F771F881F20F026173707CF
:1054E000480730F4620B730B840B200D311D411DF6
:1054F000A09581F7B901842F9158880F96958795CB
:1055000008959F3F31F0915020F4879577956795E6
:10551000B795880F911D9695879597F908959150A5
:105520005040660F771F881FD2F708952A0D3B1D44
:105530004C1D5D1D6E1D7F1D801F911F08952A1932
:105540003B094C095D096E097F09800B910B089599
:105550002A153B054C055D056E057F058007910703
:105560000895EE0FFF1F0590F491E02D0994CF935D
:10557000DF938230910510F482E090E0E09116060E
:10558000F091170620E030E0C0E0D0E0309711F154
:105590004081518148175907C0F04817590761F4F5
:1055A00082819381209719F09B838A832BC09093EB
:1055B00017068093160626C02115310519F04217EB
:1055C000530718F49A01BE01DF01EF010280F38155
:1055D000E02DDCCF2115310509F1281B390B2430D2
:1055E000310590F412968D919C9113976115710578
:1055F00021F0FB019383828304C09093170680936C
:105600001606FD01329644C0FD01E20FF31F81939F
:105610009193225031092D933C933AC02091140666
:1056200030911506232B41F420910601309107019A
:105630003093150620931406209104013091050142
:105640002115310541F42DB73EB740910801509125
:105650000901241B350BE0911406F0911506E217A1
:10566000F307A0F42E1B3F0B2817390778F0AC0185
:105670004E5F5F4F2417350748F04E0F5F1F509362
:105680001506409314068193919302C0E0E0F0E088
:10569000CF01DF91CF9108950F931F93CF93DF93A5
:1056A000009709F48CC0FC0132971382128200919A
:1056B0001606109117060115110581F4208131811C
:1056C000820F931F20911406309115062817390771
:1056D00079F5F0931506E093140671C0D80140E007
:1056E00050E0AE17BF0750F412962D913C911397DE
:1056F000AD012115310509F1D901F3CF9D01DA0181
:105700003383228360817181860F971F82179307ED
:1057100069F4EC0128813981260F371F2E5F3F4F36
:10572000318320838A819B8193838283452B29F453
:10573000F0931706E093160642C01396FC93EE937F
:105740001297ED01499159919E01240F351FE217DF
:10575000F30771F480819181840F951F0296119651
:105760009C938E938281938113969C938E93129730
:10577000E0E0F0E0D80112968D919C91139700978C
:1057800019F0F8018C01F6CF8D919C9198012E5F54
:105790003F4F820F931F2091140630911506281752
:1057A000390769F4309729F41092170610921606FB
:1057B00002C0138212821093150600931406DF9123
:1057C000CF911F910F910895A0E0B0E0EAEEFBE2C7
:1057D0000C94BD28EC01009721F4CB010E94B72A5C
:1057E000B8C0FC01E60FF71F9C0122503109E217F7
:1057F000F30708F4ACC0D9010D911C91119706175D
:105800001707B0F00530110508F49FC0C8010497D0
:105810008617970708F499C002501109061B170B49
:10582000019311936D937C93CF010E944C2B8DC0FB
:105830005B01A01AB10A4C01800E911EA0911606C0
:10584000B091170640E050E0E12CF12C109709F4DC
:105850004AC0A815B905D1F56D907C9011976301E8
:1058600082E0C80ED11CCA14DB0480F1A3014A19DE
:105870005B096A0182E0C80ED11C1296BC90129797
:105880001396AC91B5E0CB16D10440F0B282A3835D
:1058900051834083D9016D937C930AC00E5F1F4FE3
:1058A000C301800F911FF90191838083EB2DFA2FA3
:1058B000E114F10431F0D7011396FC93EE931297A3
:1058C00044C0F0931706E09316063FC08D919C915B
:1058D00011974817590708F4AC017D0112960D90F5
:1058E000BC91A02DB3CF8091140690911506881518
:1058F0009905E1F446175707C8F480910401909187
:105900000501009741F48DB79EB740910801509171
:105910000901841B950BE817F907C8F4F0931506E5
:10592000E0931406F901718360830FC0CB010E94DC
:10593000B72A7C01009759F0A801BE010E94B32C40
:10594000CE010E944C2BC70104C0CE0102C080E0F2
:1059500090E0CDB7DEB7EEE00C94D92881E090E07E
:10596000F8940C94CE2CFB01DC0102C001900D9246
:1059700041505040D8F70895FC018191861721F0DD
:105980008823D9F7992708953197CF010895FB010E
:10599000DC0101900D920020E1F7089511E0C7E6C7
:1059A000D1E004C0FE010E94B12A2196C836D10779
:0659B000C9F7F894FFCFD7
:1059B60014001400000018068000000000002A02EF
:1059C6009301C2017102F301D101E5010D0A004202
:1059D60041443A20003139322E3136382E33312EB9
:1059E6003336003A007365727620636F6E6E206EF2
:1059F600756D203D20007A617072207673657000A7
:105A06005749464920455252210044524950204E9A
:105A16004F54204F4B2100505253204C4F57203C9F
:105A2600312C38210056455259204C4F573C312CC9
:105A36003221004E4F20464C4F57212050554D5095
:105A46002053544F5021006669656C64002F41480D
:105A560054554E4700203B20003B002300454C4355
:105A66003A20496E76616C696420435243004E4584
:105A760045445F53594E432100434D443F3F004E3A
:105A86006F206572726F722C206576657279746804
:105A9600696E67204F4B2E004F7574206F66206D20
:105AA600656D6F72792E00556E6B6E6F776E206323
:105AB6006F64652E0054696D656F75742E00526FA4
:105AC6007574696E672070726F626C656D2E004F1B
:105AD6007065726174696F6E20696E2070726F678F
